{
  "contractName": "Diamond",
  "abi": [
    {
      "inputs": [],
      "payable": false,
      "stateMutability": "nonpayable",
      "type": "constructor"
    },
    {
      "anonymous": false,
      "inputs": [
        {
          "indexed": true,
          "internalType": "bytes32",
          "name": "boy",
          "type": "bytes32"
        },
        {
          "indexed": true,
          "internalType": "bytes32",
          "name": "girl",
          "type": "bytes32"
        },
        {
          "indexed": false,
          "internalType": "bytes32",
          "name": "date",
          "type": "bytes32"
        },
        {
          "indexed": false,
          "internalType": "uint256",
          "name": "status",
          "type": "uint256"
        },
        {
          "indexed": false,
          "internalType": "bytes32",
          "name": "image",
          "type": "bytes32"
        }
      ],
      "name": "MajorEvent",
      "type": "event"
    },
    {
      "payable": false,
      "stateMutability": "nonpayable",
      "type": "fallback"
    },
    {
      "constant": true,
      "inputs": [],
      "name": "boy",
      "outputs": [
        {
          "internalType": "bytes32",
          "name": "",
          "type": "bytes32"
        }
      ],
      "payable": false,
      "stateMutability": "view",
      "type": "function"
    },
    {
      "constant": true,
      "inputs": [],
      "name": "date",
      "outputs": [
        {
          "internalType": "bytes32",
          "name": "",
          "type": "bytes32"
        }
      ],
      "payable": false,
      "stateMutability": "view",
      "type": "function"
    },
    {
      "constant": true,
      "inputs": [],
      "name": "description",
      "outputs": [
        {
          "internalType": "bytes32",
          "name": "",
          "type": "bytes32"
        }
      ],
      "payable": false,
      "stateMutability": "view",
      "type": "function"
    },
    {
      "constant": true,
      "inputs": [],
      "name": "girl",
      "outputs": [
        {
          "internalType": "bytes32",
          "name": "",
          "type": "bytes32"
        }
      ],
      "payable": false,
      "stateMutability": "view",
      "type": "function"
    },
    {
      "constant": true,
      "inputs": [],
      "name": "image",
      "outputs": [
        {
          "internalType": "bytes32",
          "name": "",
          "type": "bytes32"
        }
      ],
      "payable": false,
      "stateMutability": "view",
      "type": "function"
    },
    {
      "constant": true,
      "inputs": [],
      "name": "owner",
      "outputs": [
        {
          "internalType": "address",
          "name": "",
          "type": "address"
        }
      ],
      "payable": false,
      "stateMutability": "view",
      "type": "function"
    },
    {
      "constant": true,
      "inputs": [],
      "name": "status",
      "outputs": [
        {
          "internalType": "uint256",
          "name": "",
          "type": "uint256"
        }
      ],
      "payable": false,
      "stateMutability": "view",
      "type": "function"
    },
    {
      "constant": false,
      "inputs": [
        {
          "internalType": "bytes32",
          "name": "boyEntry",
          "type": "bytes32"
        },
        {
          "internalType": "bytes32",
          "name": "girlEntry",
          "type": "bytes32"
        },
        {
          "internalType": "bytes32",
          "name": "dateEntry",
          "type": "bytes32"
        },
        {
          "internalType": "uint256",
          "name": "statusEntry",
          "type": "uint256"
        },
        {
          "internalType": "bytes32",
          "name": "imageEntry",
          "type": "bytes32"
        },
        {
          "internalType": "bytes32",
          "name": "descriptionEntry",
          "type": "bytes32"
        }
      ],
      "name": "createDiamond",
      "outputs": [],
      "payable": false,
      "stateMutability": "nonpayable",
      "type": "function"
    }
  ],
  "bytecode": "0x608060405234801561001057600080fd5b50336000806101000a81548173ffffffffffffffffffffffffffffffffffffffff021916908373ffffffffffffffffffffffffffffffffffffffff160217905550610357806100606000396000f3fe608060405234801561001057600080fd5b50600436106100885760003560e01c80633318f1a51161005b5780633318f1a5146101b05780637284e416146101ce5780638da5cb5b146101ec578063f3ccaac01461023657610088565b806315fce90f146100f6578063166ebdc514610114578063200d2ed214610174578063323046b114610192575b6040517f08c379a00000000000000000000000000000000000000000000000000000000081526004018080602001828103825260168152602001807f4572726f7220696e2070726f766964656420646174610000000000000000000081525060200191505060405180910390fd5b6100fe610254565b6040518082815260200191505060405180910390f35b610172600480360360c081101561012a57600080fd5b8101908080359060200190929190803590602001909291908035906020019092919080359060200190929190803590602001909291908035906020019092919050505061025a565b005b61017c6102df565b6040518082815260200191505060405180910390f35b61019a6102e5565b6040518082815260200191505060405180910390f35b6101b86102eb565b6040518082815260200191505060405180910390f35b6101d66102f1565b6040518082815260200191505060405180910390f35b6101f46102f7565b604051808273ffffffffffffffffffffffffffffffffffffffff1673ffffffffffffffffffffffffffffffffffffffff16815260200191505060405180910390f35b61023e61031c565b6040518082815260200191505060405180910390f35b60015481565b8560018190555084600281905550836003819055508260048190555081600581905550806006819055506002546001547fd291321f6129f61e4e934b0d56a8d13ed3b97e74bdeabc37b4446a615894558760035460045460055460405180848152602001838152602001828152602001935050505060405180910390a3505050505050565b60045481565b60035481565b60025481565b60065481565b6000809054906101000a900473ffffffffffffffffffffffffffffffffffffffff1681565b6005548156fea265627a7a72315820186a095305c750d1a9d971a5f6946902c4729b7e6971cca31895b48c0b22383e64736f6c634300050c0032",
  "source": "pragma solidity >=0.4.21 <0.6.0;\n\ncontract Diamond {\n    address public owner;\n    bytes32 public boy;\n    bytes32 public girl;\n    bytes32 public date;\n    uint public status;\n    bytes32 public image;\n    bytes32 public description;\n\n    constructor() public {\n        owner = msg.sender;\n    }\n\n    modifier restricted() {\n        if (msg.sender == owner) _;\n    }\n\n    function createDiamond(bytes32 boyEntry, bytes32 girlEntry, bytes32 dateEntry, uint statusEntry, bytes32 imageEntry, bytes32 descriptionEntry) public{\n        boy = boyEntry;\n        girl = girlEntry;\n        date = dateEntry;\n        status = statusEntry;\n        image = imageEntry;\n        description = descriptionEntry;\n\n        emit MajorEvent(boy, girl, date, status, image);\n     }\n\n\n    event MajorEvent(bytes32 indexed boy, bytes32 indexed girl, bytes32 date, uint status, bytes32 image);\n\n    function () external{\n        revert(\"Error in provided data\");\n    }\n}",
  "sourcePath": "/home/kangfu/Codes/DiamondChain/contracts/Diamond.sol",
  "compiler": {
    "name": "solc",
    "version": "0.5.12+commit.7709ece9.Emscripten.clang"
  },
  "schemaVersion": "3.0.19",
  "updatedAt": "2019-12-02T16:00:44.308Z",
  "networkType": "ethereum",
  "devdoc": {
    "methods": {}
  },
  "userdoc": {
    "methods": {}
  }
}